:100000006F0040016F00C000000000000000000011
:10001000730020309301C00817110000130181BE46
:100020009302C0081303C00863F8620023A0020013
:1000300093824200E3EC62FEEF00C0036F00000019
:1000400000000000B7120000938202C013030002F8
:10005000130F000093030000B383B300130F1F00BE
:10006000E34C6FFE338EC300B30E5E002380AE0000
:1000700067800000030580089305F0001306F00078
:08008000EFF05FFC6F000000CF
:0100880083F4
:00000001FF
