:100000006F0040016F00C000000000000000000011
:10001000730020309301401C17110000130181BEB2
:100020009302401C1303401C63F8620023A00200EB
:1000300093824200E3EC62FEEF00C0146F00000008
:1000400000000000B7150000938505C013060040AE
:10005000930600002380A500938616009385150063
:10006000E39AC6FE67800000B7120000938202C0C8
:1000700013030002130F000093030000B383B300C7
:10008000130F1F00E34C6FFE338EC300B30E5E00F0
:100090002380AE0067800000130101FC232E1102B3
:1000A000232C810213040104232CC4FC232AD4FC36
:1000B0002328E4FC2326F4FC93070500A30FF4FC9B
:1000C00093870500230FF4FC8347F4FD1385070095
:1000D000EFF05FF7832784FD2326F4FE6F00800393
:1000E0008347E4FD0326C4FE832544FD13850700F2
:1000F000EFF09FF78347E4FD0326C4FE8325C4FC8D
:1001000013850700EFF05FF68327C4FE938717007F
:100110002326F4FE0327C4FE832704FDE3D2E7FC75
:10012000832744FD2324F4FE6F0080038347E4FD0E
:10013000032684FD832584FE13850700EFF0DFF29C
:100140008347E4FD032604FD832584FE1385070011
:10015000EFF09FF1832784FE938717002324F4FE9A
:10016000032784FE8327C4FCE3D2E7FC13000000CE
:10017000130000008320C103032481031301010441
:1001800067800000130101FF232611002324810052
:10019000130401019307C001130770019306900037
:1001A00013061000930530081305C007EFF0DFEECB
:1001B000130000008320C10003248100130101010A
:0401C0006780000054
:00000001FF
